:0E0000000C94AA000C94DA000C9400000C94EE
:10000E0000000C9400000C9400000C9400000C9462
:10001E0000000C9400000C9400000C9400000C9452
:10002E0000000C9400000C9400000C9400000C9442
:10003E0000000C9400000C9400000C9400000C9432
:10004E0000000C9400004553430046310000463238
:10005E0000004633000046340000463500004636A8
:10006E000000463700004638000046390000463191
:10007E00300046313100463132007E002100400012
:10008E002300240025005E0026002A0028002900F7
:10009E005F002B002F005100570045005200540006
:1000AE005900550049004F0050007B007D00410073
:1000BE00530044004600470048004A004B004C00E5
:1000CE003B0027005A0058004300560042004E00E5
:1000DE004D003C003E003F006374720057696E0095
:1000EE00416C7400200057696E0030002E00310004
:1000FE003200330034003500360037003800390046
:10010E002B002D002A001027E80364000A000100CE
:10011E0000100001100001000000000000000000AF
:10012E00000B01002D4E414E000080C00100020068
:10013E002601080004002801010088013001020098
:10014E008C0138010000F894EE27ECBBF1E0FBBF08
:10015E00EBBFE5BFF8E1F1BDE1BD8DE0A2E0BB274D
:10016E00ED938A95E9F780E094E0A0E6ED93019790
:10017E00E9F7EAE3F1E085919591009761F0A59199
:10018E00B59105901590BF01F00105900D92019764
:10019E00E1F7FB01F0CFEFE5EDBFE4E0EEBFC0E627
:1001AE00D1E00C94F903EA93FA93EFB7EA93F201D4
:1001BE0031962F0120FC10C0EBE0BE1618F4E2E0E1
:1001CE00EB1508F005C0A694879B02C0E0E8AE2AA6
:1001DE00E3E0E5BF689420F820FE09C0E2E0E5BF49
:1001EE00E89420F8BA9419F48A2CEBE0BE2EE9912B
:1001FE00EFBFF991E9911895E881E63739F40E943D
:10020E001905E4E5F0E00E941E05E6C2E53039F47A
:10021E000E941905E8E5F0E00E941E05DDC2E630F9
:10022E0039F40E941905ECE5F0E00E941E05D4C2D7
:10023E00E43039F40E941905E0E6F0E00E941E0554
:10024E00CBC2EC3039F40E941905E4E6F0E00E94CE
:10025E001E05C2C2E33039F40E941905E8E6F0E04B
:10026E000E941E05B9C2EB3039F40E941905ECE666
:10027E00F0E00E941E05B0C2E33839F40E94190561
:10028E00E0E7F0E00E941E05A7C2EA3039F40E94B2
:10029E001905E4E7F0E00E941E059EC2E13039F434
:1002AE000E941905E8E7F0E00E941E0595C2E930AC
:1002BE0039F40E941905ECE7F0E00E941E058CC28D
:1002CE00E83739F40E941905E0E8F0E00E941E05B7
:1002DE0083C2E73039F40E941905E4E8F0E00E9489
:1002EE001E057AC2EE3039F40E941905E8E8F0E0F6
:1002FE000E941E0571C2E63139F40E941905EAE822
:10030E00F0E00E941E0568C2EE3139F40E94190514
:10031E00ECE8F0E00E941E055FC2E63239F40E945E
:10032E001905EEE8F0E00E941E0556C2E53239F4DA
:10033E000E941905E0E9F0E00E941E054DC2EE3262
:10034E0039F40E941905E2E9F0E00E941E0544C24C
:10035E00E63339F40E941905E4E9F0E00E941E0527
:10036E003BC2ED3339F40E941905E6E9F0E00E9434
:10037E001E0532C2EE3339F40E941905E8E9F0E0A9
:10038E000E941E0529C2E63439F40E941905EAE9D5
:10039E00F0E00E941E0520C2E53439F40E941905D2
:1003AE00ECE9F0E00E941E0517C2EE3439F40E940B
:1003BE001905EEE9F0E00E941E050EC2E53539F48E
:1003CE000E941905E0EAF0E00E941E0505C2ED3517
:1003DE0039F40E941905E2EAF0E00E941E05FCC104
:1003EE00ED3039F40E9494040E9419050E942205F2
:1003FE00F3C1E53139F40E941905E4EAF0E00E94F8
:10040E001E05EAC1ED3139F40E941905E6EAF0E065
:10041E000E941E05E1C1E43239F40E941905E8EA92
:10042E00F0E00E941E05D8C1ED3239F40E94190584
:10043E00EAEAF0E00E941E05CFC1EC3239F40E94C8
:10044E001905ECEAF0E00E941E05C6C1E53339F449
:10045E000E941905EEEAF0E00E941E05BDC1EC33C4
:10046E0039F40E941905E0EBF0E00E941E05B4C1BC
:10047E00E33439F40E941905E2EBF0E00E941E0508
:10048E00ABC1E43439F40E941905E4EBF0E00E94AC
:10049E001E05A2C1ED3439F40E941905E6EBF0E019
:1004AE000E941E0599C1E43539F40E941905E8EB46
:1004BE00F0E00E941E0590C1EB3539F40E9419053B
:1004CE00EAEBF0E00E941E0587C1EC3139F40E9480
:1004DE001905ECEBF0E00E941E057EC1EB3139F4FC
:1004EE000E941905EEEBF0E00E941E0575C1E33285
:1004FE0039F40E941905E0ECF0E00E941E056CC173
:10050E00EB3239F40E941905E2ECF0E00E941E0570
:10051E0063C1E43339F40E941905E4ECF0E00E9463
:10052E001E055AC1E33339F40E941905E6ECF0E0DA
:10053E000E941E0551C1EB3339F40E941905E8ECF7
:10054E00F0E00E941E0548C1E23439F40E941905FC
:10055E00EAECF0E00E941E053FC1EB3439F40E9434
:10056E001905ECECF0E00E941E0536C1EC3439F4AE
:10057E000E941905EEECF0E00E941E052DC1E23539
:10058E0039F40E941905E0EDF0E00E941E0524C129
:10059E00EA3539F4E2E02E260E9419050E94220562
:1005AE001BC1E23111F46A9417C1EA3139F40E9489
:1005BE001905E2EDF0E00E941E050EC1E23239F49B
:1005CE000E941905E4EDF0E00E941E0505C1E1321E
:1005DE0039F40E941905E6EDF0E00E941E05FCC0FC
:1005EE00EA3239F40E941905E8EDF0E00E941E058A
:1005FE00F3C0E23339F40E941905EAEDF0E00E94EF
:10060E001E05EAC0E13339F40E941905ECEDF0E065
:10061E000E941E05E1C0EA3339F40E941905EEED81
:10062E00F0E00E941E05D8C0E13439F40E9419058D
:10063E00E0EEF0E00E941E05CFC0E93439F40E94CE
:10064E001905E2EEF0E00E941E05C6C0EA3439F448
:10065E000E941905E4EEF0E00E941E05BDC0E935CA
:10066E0011F46394B9C0E43139F40E941905E6EE31
:10067E00F0E00E941E05B0C0E73239F40E94190561
:10068E00EAEEF0E00E941E05A7C0E13139F40E94A7
:10069E001905EEEEF0E00E941E059EC0E93239F417
:1006AE000E941905E2EFF0E00E941E0595C0EF31A1
:1006BE0039F40E941905E4EFF0E00E941E058CC08B
:1006CE00E03739F40E941905E8EFF0E00E941E05AC
:1006DE0083C0E13739F40E941905EAEFF0E00E9479
:1006EE001E057AC0E93639F40E941905ECEFF0E0E8
:1006FE000E941E0571C0E23739F40E941905EEEF13
:10070E00F0E00E941E0568C0EA3739F40E94190510
:10071E00E0E0F1E00E941E055FC0EB3639F40E9466
:10072E001905E2E0F1E00E941E0556C0E33739F4E8
:10073E000E941905E4E0F1E00E941E054DC0E43769
:10074E0039F40E941905E6E0F1E00E941E0544C04E
:10075E00EC3639F40E941905E8E0F1E00E941E051E
:10076E003BC0E53739F40E941905EAE0F1E00E943A
:10077E001E0532C0ED3739F40E941905ECE0F1E0A8
:10078E000E941E0529C0E93739F40E941905EEE0D2
:10079E00F1E00E941E0520C0EB3739F40E941905C6
:1007AE00E0E1F1E00E941E0517C0EC3739F40E941B
:1007BE001905E2E1F1E00E941E050EC0E63661F475
:1007CE000E9419050E943B047E2EE72DE150F0E0B9
:1007DE00E05AFE4FA0E0A083882009F0939488246D
:1007EE000C941705EBB7E064EBBFE2E0E5BFE0E089
:1007FE00E4BFE0E4EABFE0E8E8B98F98E0E1EA930D
:10080E000E94E40478948A92F7DC0E9494046A921F
:10081E00E0E021FCE1E0EA930E9484040E941905C5
:10082E000E94C504E4EFF1E0FA93EA930E943305C7
:10083E00EACFFFCFE991F991A991B991CD016D91CF
:10084E006623E9F7119705900D920020E1F7FC0160
:10085E000895E991F991A991B991CD0161916D93A5
:10086E006623E1F7FC010895A991B991EE27FF27C0
:10087E006D91662311F03196FBCF0895FFE0FA9546
:10088E00F1F70895A7B3AF70A7BBC19AC098F6DF72
:10089E00C29AF4DFA6B3C298F1DFC29AEFDFC29814
:1008AE00A7FDF5CF0895A07FAB2BA8BBC29A0E94DF
:1008BE004504C2980E9445040895C198A7B3A76F36
:1008CE00A7BBB8B3BF70A881EEDFA881A295EBDFFE
:1008DE00C19A0C941705C29A0E944504E6B3C298B9
:1008EE000E944504E07F08950E944504F4DFAE2F78
:1008FE00F2DFC198E295EA2B08950E944904E8813F
:10090E00F0E0E457FE4FE081A981EA0FEA930E94DE
:10091E006404D980C880229608950E944904E2E0BA
:10092E00EA930E9464040E944904ECE0EA930E9458
:10093E0064040E944904E1E0EA930E946404E0E04A
:10094E00CE2EDE2E0895EF93FF93A8816894AA30E1
:10095E0029F0E894E0919001DE1630F0C394E0E0C7
:10096E00EA93CA92CADF36F0D3948CDFC09AA8817C
:10097E00AA93A3DFFF91EF910C9417051A93A98107
:10098E00BA81ED91A983BA831E2FE03019F01A9324
:10099E00DADFF5CF188123960895AA27BB27119782
:1009AE00F1F70895C198A7B3A76FA7BBB8B3BF70EF
:1009BE00A8810E945A04C19A33C0C298C098E88197
:1009CE00E0939001E058E0938E01E881E054E093CB
:1009DE008F010E9428050E9428050E942805DDDF50
:1009EE00E0E2EA93DFDFD9DFE8E20E942E05E4E0E1
:1009FE000E942E05E5E80E942E05A7B3AF70A7BB97
:100A0E00C19A0E947B04E53011F0E0E009C00E941B
:100A1E004904E6E0EA930E9464040E949404E1E033
:100A2E0021960895E0E6F1E0FA93EA930895FA9399
:100A3E00EA930C942104E4E7F1E0FA93EA930C9420
:100A4E0030040E94D404E0E3EA930C94D904EA93B0
:100A5E000E9464040C94D404E991F991309639F013
:100A6E0080ED97E00197F1F7A8953197C9F70895B2
:00000001FF
