:040000000C94430019
:100004000C9400000C9400000C9400000C9400006C
:100014000C9400000C9400000C9400000C9400005C
:100024000C9400000C9400000C9470000C940000DC
:100034000C948E000C9400000C9400000C940000AE
:100044000C9400000C9400000C9400000C9400002C
:100054001027E80364000A000100001000011000EA
:1000640001000000000000000000000080C001004A
:1000740002006600080004006800020060037000CB
:100084000000F894EE27ECBBF1E0FBBFEBBFE5BF4B
:100094008DE0A2E0BB27ED938A95E9F780E094E038
:1000A400A0E6ED930197E9F7E2E7F0E085919591F9
:1000B400009761F0A591B59105901590BF01F001ED
:1000C40005900D920197E1F7FB01F0CFEFE5EDBF4D
:1000D400E4E0EEBFC0E6D1E00C94B300EA93FA93F7
:1000E400EFB7EA931A930A931BB10CB1E12FEC71A9
:1000F40061F4E52D5394F0E0E05AFE4F0083F301E0
:1001040031963F0111F4689420F809911991E9910D
:10011400EFBFF991E99118950A92EA93FA93EFB730
:10012400EA930A2C0B2851F0F50131975F01E82D71
:100134008394F0E0E05AFD4FE081ECB9E991EFBF20
:10014400F991E99109901895AA93E881E7B985E3B3
:100154008A95F1F7369A349BFECF349AE4B1F5B11F
:10016400A5C0E0E0EABBEBBBEFEFE7BBE0E0E8BB38
:10017400E4BBE5BBE1BBE2BBE3BFE2BFECBFEFBD69
:10018400EEBDEDBDECBDE7BDE6BDEBBDEABDE9BD31
:10019400E8BDE2BDE5BDE4BDE3BDE9BFE5BFE4BF45
:1001A400EBB9E8EDEAB9E6E8E0BDE3E0E0BDE0E4A0
:1001B400E9B9E0E8E8B9E0E0E7B9E4E8E6B9E0E0A5
:1001C400E0BFEDB9E6BFA0E143D07894A0E0BCDF86
:1001D400FDCFFFCFAA93E881E07111F0AB9A01C083
:1001E400AB98E881E07211F0AC9A01C0AC98E88158
:1001F400E07411F0AD9A01C0AD98E881E07811F097
:10020400AE9A01C0AE988BE18A95F1F7AA9A8BE178
:100214008A95F1F7AA988BE18A95F1F747C0AA93DA
:10022400A881D8DFE881E295E883A881D3DF88EC50
:1002340090E00197F1F73AC0A2E00E945A01ACE0C5
:10024400EEDFA1E00E945A01E0E0CE2EDE2E0895FA
:10025400AA93A39AA49AA59AA69AA29AA09AA19AB2
:10026400AA98A898A998E881E0936403E058E093D9
:100274006203E881E054E0936303A4E1B0E00E94E8
:1002840068010E9460010E9460010E946001A0E276
:10029400A1DF80E991E00197F1F7A8E2C0DFA4E0D3
:1002A400BEDFA5E8BCDFA6E0BADFC6DF219608956D
:1002B4000E941101A3E0B0E00C946801A0E30E9445
:1002C400EC0080E991E00197F1F70895109639F078
:1002D40080EA9FE00197F1F7A8951197C9F708956F
:00000001FF
